{
	"abi": [
		{
			"type": "function",
			"name": "h",
			"inputs": [],
			"outputs": [
				{
					"name": "",
					"type": "uint256",
					"internalType": "uint256"
				}
			],
			"stateMutability": "pure"
		}
	],
	"bytecode": {
		"object": "0x6080604052348015600f57600080fd5b506101218061001f6000396000f3fe6080604052348015600f57600080fd5b506004361060285760003560e01c8063b8c9d36514602d575b600080fd5b60336045565b60405190815260200160405180910390f35b6040805160208101825260008082529151633b050da560e01b815281516001600160a01b0316600482015273__$dfdfbae8b003a9c19ed4afe57ff51f2aac$__90633b050da590602401602060405180830381865af415801560ab573d6000803e3d6000fd5b505050506040513d601f19601f8201168201806040525081019060cd919060d3565b91505090565b60006020828403121560e457600080fd5b505191905056fea2646970667358221220200313713e539350813a183d4d7827387563346eba9f2ad532e60528889a56ae64736f6c63430008190033",
		"linkReferences": {
			"src/Test.sol": {
				"L": [
					{
						"start": 145,
						"length": 20
					}
				]
			}
		}
	},
	"methodIdentifiers": {
		"h()": "b8c9d365"
	},
	"id": 0
}