{
	"abi": [
		{
			"type": "function",
			"name": "g",
			"inputs": [
				{
					"name": "s",
					"type": "tuple",
					"internalType": "struct S",
					"components": [
						{
							"name": "i",
							"type": "I",
							"internalType": "contract I"
						}
					]
				}
			],
			"outputs": [
				{
					"name": "",
					"type": "uint256",
					"internalType": "uint256"
				}
			],
			"stateMutability": "pure"
		}
	],
	"bytecode": {
		"object": "0x610182610039600b82828239805160001a607314602c57634e487b7160e01b600052600060045260246000fd5b30600052607381538281f3fe73000000000000000000000000000000000000000030146080604052600436106100355760003560e01c80633b050da51461003a575b600080fd5b61004d6100483660046100cd565b61005f565b60405190815260200160405180910390f35b600081600001516001600160a01b03166326121ff06040518163ffffffff1660e01b8152600401602060405180830381865afa1580156100a3573d6000803e3d6000fd5b505050506040513d601f19601f820116820180604052508101906100c79190610133565b92915050565b6000602082840312156100df57600080fd5b6040516020810181811067ffffffffffffffff8211171561011057634e487b7160e01b600052604160045260246000fd5b60405282356001600160a01b038116811461012a57600080fd5b81529392505050565b60006020828403121561014557600080fd5b505191905056fea264697066735822122002f28340679dc9c2e022068accdbb19b131e096873c43173dc3c7cc2eb2fd63064736f6c63430008190033",
		"linkReferences": {}
	},
	"methodIdentifiers": {
		"g(S)": "3b050da5"
	},
	"id": 0
}